{
  "_format": "hh-sol-artifact-1",
  "contractName": "MyContract",
  "sourceName": "contracts/MyContract.sol",
  "abi": [
    {
      "inputs": [
        {
          "internalType": "uint256",
          "name": "_number",
          "type": "uint256"
        }
      ],
      "stateMutability": "nonpayable",
      "type": "constructor"
    },
    {
      "inputs": [],
      "name": "readCpt",
      "outputs": [
        {
          "internalType": "uint256",
          "name": "",
          "type": "uint256"
        }
      ],
      "stateMutability": "view",
      "type": "function"
    },
    {
      "inputs": [],
      "name": "readNb",
      "outputs": [
        {
          "internalType": "uint256",
          "name": "",
          "type": "uint256"
        }
      ],
      "stateMutability": "view",
      "type": "function"
    },
    {
      "inputs": [
        {
          "internalType": "uint256",
          "name": "_number",
          "type": "uint256"
        }
      ],
      "name": "setNumber",
      "outputs": [],
      "stateMutability": "nonpayable",
      "type": "function"
    }
  ],
  "bytecode": "0x608060405234801561001057600080fd5b506040516102b73803806102b783398181016040528101906100329190610054565b806000819055505061009e565b60008151905061004e81610087565b92915050565b60006020828403121561006657600080fd5b60006100748482850161003f565b91505092915050565b6000819050919050565b6100908161007d565b811461009b57600080fd5b50565b61020a806100ad6000396000f3fe608060405234801561001057600080fd5b50600436106100415760003560e01c80633fb5c1cb1461004657806343e46cdb14610062578063fda1835314610080575b600080fd5b610060600480360381019061005b91906100e8565b61009e565b005b61006a6100c0565b6040516100779190610120565b60405180910390f35b6100886100c9565b6040516100959190610120565b60405180910390f35b80600081905550600160008154809291906100b890610145565b919050555050565b60008054905090565b6000600154905090565b6000813590506100e2816101bd565b92915050565b6000602082840312156100fa57600080fd5b6000610108848285016100d3565b91505092915050565b61011a8161013b565b82525050565b60006020820190506101356000830184610111565b92915050565b6000819050919050565b60006101508261013b565b91507fffffffffffffffffffffffffffffffffffffffffffffffffffffffffffffffff8214156101835761018261018e565b5b600182019050919050565b7f4e487b7100000000000000000000000000000000000000000000000000000000600052601160045260246000fd5b6101c68161013b565b81146101d157600080fd5b5056fea2646970667358221220d4b1e53fd969912679beb99618040cd765db2bd410b82f2664d8ce7fb30c650364736f6c63430008040033",
  "linkReferences": {},
  "deployedLinkReferences": {}
}